:041000000CEF08F0F9
:10100800FACF28F0FBCF29F0E9CF2AF0C6ED3AF065
:0410180015EF33F0AD
:10648600DF0F20200FDF20202020E8CF36F0ACA23F
:10649600FED746503624AD6E1200E8CF36F0FA0E1F
:1064A60000F0E82EFDD7362EFAD71200E8CF36F0E8
:1064B60036C0A9FFA694A69EA69CA680A850120048
:1064C600F20E1516ABAC03D01590ABB01580ABB47D
:1064D6001584ABB21586AECF22F022501200E8CF5B
:1064E60037F0A69EA69CA68437C0A9FF36C0A8FF93
:1064F600550EA76EAA0EA76EA682A6A21200FDD7FB
:10650600E8CF38F0ACA2FED7B8A603D0366A362A52
:1065160001D0366A38C037F0362A02D0D8903732E2
:10652600362EFCD737504624AD6E12003650380250
:10653600F3CF3AF0F4CF3BF036503902F3CFF4FF05
:10654600F36AF3503A26F4503B2237503802F3CF21
:10655600F4FFF36AF3503A26F4503B223AC036F081
:106566003BC037F012007C0E376E0F0E366E7FEC96
:1065760036F0010E3D6EF40E3C6E36EC33F07F0EB7
:106586003A6E3E0E396E84EC33F07C0E376E0F0E8B
:10659600366E7FEC36F0030E3D6EE80E3C6E36EC42
:1065A60033F012007C0E376E0F0E366E7FEC36F02F
:1065B600030E3D6EE80E3C6E36EC33F07F0E3A6EFF
:1065C600180E396E84EC33F07C0E376E0F0E366E75
:1065D6007FEC36F0070E3D6ED00E3C6E36EC33F097
:1065E60012007C0E376E0A0E366E9AEC37F0020EEB
:1065F600B06E700EAF6EB6EC32F00A500910D8A429
:1066060006D0010EB06E370EAF6EB6EC32F00A5001
:106616000910D8A406D0040EB06EE10EAF6EB6EC2B
:1066260032F0120000EE60F0440EEE6AE806FDE17C
:1066360000EE01F0210EEE6AE806FDE1860EF66E2A
:10664600640EF76E000EF86E00EE42F010EE0AF0E1
:106656000900F5CFEEFFE550E150FAE1000EF86EC5
:10666600000168EF39F04650FD0FA96E4650A92487
:106676000B0BA66EA866FED7000E3F6E000E3E6E92
:1066860005D0010E50EC32F03E4A3F2A3CC036F0AF
:106696003DC037F0000E396E0C0E386E99EC32F0B4
:1066A60036503E5C37503F58D8B01200EAD7FD0E40
:1066B600A96EA9500B0BA66EA866FED742C03DF088
:1066C60043C03EF0000E396E7E0E386EA9CF36F00E
:1066D600376AB7EC34F0363A373AF00E371636509A
:1066E6000F0B3712F00E361636C03FF037C040F0AB
:1066F60039EC34F03D50476E475059EC32F0466E57
:1067060012003B6E000E196E3B5013D01950010D4E
:1067160039C03BF03AC03CF0F3503B26F4503C22E3
:106726003BC0F6FF3CC0F7FF0800F55083EC32F0A3
:10673600192A1950010D39C03BF03AC03CF0F3500C
:106746003B26F4503C223BC0F6FF3CC0F7FF080056
:10675600F5500009D8B41200D9D7396E000E196E5B
:10676600395013D01950010D37C039F038C03AF0FE
:10677600F3503926F4503A2239C0F6FF3AC0F7FFF3
:106786000800F55048EC32F0192A1950010D37C0AF
:1067960039F038C03AF0F3503926F4503A2239C06D
:1067A600F6FF3AC0F7FF0800F5500009D8B412000A
:1067B600D9D7F4EC32F0000E0A6E000E096E7E0E8A
:1067C6003A6ED10E396E84EC33F07C0E376E0F0EB6
:1067D600366E7FEC36F0030E3D6EE80E3C6E36EC00
:1067E60033F07E0E3A6EE50E396E84EC33F07C0E95
:1067F600376E0F0E366E7FEC36F0030E3D6EE80EEA
:106806003C6E36EC33F009EC34F012007C0E376E39
:106816000A0E366ECDEC38F0D5EC32F0D90EF66EA7
:106826007E0EF76E0800F550720AD8A404D0040E46
:10683600B06EE10EAF6ED90EF66E7E0EF76E0800E4
:10684600F550620AD8A404D0020EB06E700EAF6E78
:10685600D90EF66E7E0EF76E0800F550660AD8A4BD
:1068660004D0010EB06E370EAF6E1200000E00019E
:106876000001A66F000E0001A56F40503F10D8B46E
:1068860029D0416E010E00010001A46F415006D0CF
:10689600D8903F36403600010001A42B40AEF8D711
:1068A600000100010001D890A537A6373F503D5C96
:1068B60040503E58D8A007D03F503D5E40503E5A0B
:1068C60000010001A581D89040323F32000100014D
:1068D600A42FE6D7A5C03DF0A6C03EF012000001E9
:1068E6000001AA51A911D8B43AD00001AB6F010E2C
:1068F60000010001AC6F0001AB5109D0000100019D
:106906000001D890A937AA3700010001AC2B00017D
:106916000001AAAFF3D700010001A951000100014F
:10692600A75D00010001AA5100010001A859D8A0E5
:106936000CD000010001A95100010001A75F000170
:106946000001AA5100010001A85B0001000100013D
:10695600D890AA33A93300010001AC2FDCD7A7C019
:10696600A7F0A8C0A8F012003A6E000E3C6E3A508E
:106976003750800AF36E800EF35C000ED8B4365C96
:10698600D8B008D0366C371ED8B0372A3A6E010E0A
:106996003C6E3A503950800AF36E800EF35C000E5E
:1069A600D8B4385CD8B004D0386C391ED8B0392A7F
:1069B60039503810D8B41AD03A6E010E3B6E3A50A0
:1069C60004D0D890383639363B2A39AEFAD7385003
:1069D600365C39503758D8A004D03850365E395016
:1069E600375AD890393238323B2EF1D73C50D8B48A
:1069F60004D0366C371ED8B0372A36C036F037C0CA
:106A060037F01200948E949C240EAC6E900EAB6EF2
:106A1600080EB86E000E366E1B0E376EB70E386E49
:106A2600000E396EA9C03AF0AAC03BF0ABC03CF0EC
:106A3600ACC03DF0A7EC35F036C0ADF037C0AEF0D7
:106A460038C0AFF039C0B0F046500001AD250001A6
:106A5600B16F000E0001AE210001B26F000E000101
:106A6600AF210001B36F000E0001B0210001B46F29
:106A7600FF0E0001B12500010001B56FFF0E0001F8
:106A8600B2210001B66FFF0E0001B3210001B76FFE
:106A9600FF0E0001B4210001B86FB6C0B0FFB5C04B
:106AA600AFFF1200D08EF28E1AD0F28AD58E4BD05E
:106AB6009D80CD8048D09D82CA8445D0A082B18079
:106AC60042D0F288F19C3FD0F086F19A3CD0F08813
:106AD600F19839D09D8C37D09D8A9F8A34D036C0A4
:106AE60038F037C039F039509D0AD8B40AD03D0A7B
:106AF600D8B415D0500AD8B417D0020AD8B41CD0CE
:106B060022D03850010AD8B4D3D7030AD8B4D3D781
:106B1600220AD8B4E1D7600AD8B4DCD714D03850EA
:106B2600020AD8B4CBD70FD03850080AD8B4CCD77D
:106B3600180AD8B4CCD707D03850100AD8B4C1D761
:106B4600300AD8B4B2D71200000E00010001A46FBB
:106B5600000E0001A56F000E0001A66F000E0001D9
:106B6600A76F3D503A103B103C10D8B439D03E6E5A
:106B7600010E00010001A86F3E5008D0D8903A36A9
:106B86003B363C363D3600010001A82B3DAEF6D71C
:106B96000001D8900001A4370001A5370001A637EF
:106BA6000001A7373A50365C3B5037583C503858AE
:106BB6003D503958D8A00BD03A50365E3B50375A24
:106BC6003C50385A3D50395A00010001A481D890F2
:106BD6003D323C323B323A3200010001A82FD8D771
:106BE600A4C036F0A5C037F0A6C038F0A7C039F06B
:106BF60012003CD0929080707ED0929280727BD0B0
:106C06009294807478D09296807675D09298807897
:106C160072D0929A807A6FD0939081706CD0939252
:106C2600817269D09394817466D09396817663D08D
:106C36009398817860D0939A817A5DD0939C817C79
:106C46005AD0939E817E57D09490827054D094925D
:106C5600827251D0949482744ED0949C827C4BD094
:106C6600949E827E48D0959E837E45D022C024F095
:106C760023C025F025507C0AD8A43DD02450000A14
:106C8600D8B4B8D7010AD8B4B8D7030AD8B4B8D795
:106C9600010AD8B4B8D7070AD8B4B8D7010AD8B405
:106CA600B8D70D0AD8B4B8D7010AD8B4B8D7030AEA
:106CB600D8B4B8D7010AD8B4B8D7070AD8B4B8D761
:106CC600010AD8B4B8D7030AD8B4B8D7010AD8B4D9
:106CD600B8D71F0AD8B4B8D7010AD8B4B8D7030AA8
:106CE600D8B4B8D7040AD8B4B8D7010AD8B4B8D734
:106CF600080AD8B4B8D712003CD0929080707ED0E3
:106D0600929280727BD09294807478D0929680769C
:106D160075D09298807872D0929A807A6FD093903C
:106D260081706CD09392817269D09394817466D08D
:106D36009396817663D09398817860D0939A817A7E
:106D46005DD0939C817C5AD0939E817E57D094903F
:106D5600827054D09492827251D0949482744ED0A0
:106D6600949C827C4BD0949E827E48D0959E837E56
:106D760045D036C038F037C039F039507C0AD8A42F
:106D86003DD03850000AD8B4B8D7010AD8B4B8D71D
:106D9600030AD8B4B8D7010AD8B4B8D7070AD8B402
:106DA600B8D7010AD8B4B8D70D0AD8B4B8D7010AEB
:106DB600D8B4B8D7030AD8B4B8D7010AD8B4B8D764
:106DC600070AD8B4B8D7010AD8B4B8D7030AD8B4D2
:106DD600B8D7010AD8B4B8D71F0AD8B4B8D7010AA9
:106DE600D8B4B8D7030AD8B4B8D7040AD8B4B8D731
:106DF600010AD8B4B8D7080AD8B4B8D7120045D013
:106E06009290808093D09292808290D09294808447
:106E16008DD0929680868AD09298808887D0929AD2
:106E2600808A84D0000E926E896880D0939081808B
:106E36007DD0939281827AD09394818477D09396F1
:106E4600818674D09398818871D0939A818A6ED006
:106E5600939C818C6BD0939E818E68D0000E936E2E
:106E66008A6864D09490828061D0949282825ED047
:106E7600949482845BD0949C828C58D0949E828E0B
:106E860055D0000E946E8B6851D022C024F023C0DA
:106E960025F025500F0AD8B404D0730AD8B40CD004
:106EA60045D02450800AD8B4BDD7010AD8B4D6D765
:106EB600030AD8B4E6D73AD02450000AD8B4A0D7EB
:106EC600010AD8B4A0D7030AD8B4A0D7010AD8B407
:106ED600A0D7070AD8B4A0D7010AD8B4A0D70D0AFC
:106EE600D8B4A4D7010AD8B4A4D7030AD8B4A4D76F
:106EF600010AD8B4A4D7070AD8B4A4D7010AD8B4CB
:106F0600A4D7030AD8B4A4D7010AD8B4A4D71F0AB1
:106F1600D8B4A8D7010AD8B4A8D7030AD8B4A8D732
:106F2600040AD8B4A8D7010AD8B4A8D7120045D005
:106F36009290808093D09292808290D09294808416
:106F46008DD0929680868AD09298808887D0929AA1
:106F5600808A84D0000E926E896880D0939081805A
:106F66007DD0939281827AD09394818477D09396C0
:106F7600818674D09398818871D0939A818A6ED0D5
:106F8600939C818C6BD0939E818E68D0000E936EFD
:106F96008A6864D09490828061D0949282825ED016
:106FA600949482845BD0949C828C58D0949E828EDA
:106FB60055D0000E946E8B6851D036C038F037C06D
:106FC60039F039500F0AD8B404D0730AD8B40CD0AB
:106FD60045D03850800AD8B4BDD7010AD8B4D6D720
:106FE600030AD8B4E6D73AD03850000AD8B4A0D7A6
:106FF600010AD8B4A0D7030AD8B4A0D7010AD8B4D6
:10700600A0D7070AD8B4A0D7010AD8B4A0D70D0ACA
:10701600D8B4A4D7010AD8B4A4D7030AD8B4A4D73D
:10702600010AD8B4A4D7070AD8B4A4D7010AD8B499
:10703600A4D7030AD8B4A4D7010AD8B4A4D71F0A80
:10704600D8B4A8D7010AD8B4A8D7030AD8B4A8D701
:10705600040AD8B4A8D7010AD8B4A8D7120048D0D1
:107066009290809096D09292809293D092948094AF
:1070760090D0929680968DD0929880988AD0929A47
:10708600809A87D0000E926E000E896E82D0939001
:1070960081907FD0939281927CD09394819479D081
:1070A6009396819676D09398819873D0939A819A85
:1070B60070D0939C819C6DD0939E819E6AD0000E69
:1070C600936E000E8A6E65D09490829062D09492F0
:1070D60082925FD0949482945CD0949C829C59D086
:1070E600949E829E56D0000E946E000E8B6E51D0EA
:1070F60022C024F023C025F025500F0AD8B404D0AE
:10710600730AD8B40CD045D02450800AD8B4BAD764
:10711600010AD8B4D4D7030AD8B4E5D73AD0245054
:10712600000AD8B49DD7010AD8B49DD7030AD8B4AB
:107136009DD7010AD8B49DD7070AD8B49DD7010AAE
:10714600D8B49DD70D0AD8B4A2D7010AD8B4A2D70D
:10715600030AD8B4A2D7010AD8B4A2D7070AD8B46A
:10716600A2D7010AD8B4A2D7030AD8B4A2D7010A73
:10717600D8B4A2D71F0AD8B4A7D7010AD8B4A7D7BC
:10718600030AD8B4A7D7040AD8B4A7D7010AD8B433
:10719600A7D7120048D09290809096D09292809273
:1071A60093D09294809490D0929680968DD0929817
:1071B60080988AD0929A809A87D0000E926E000E9E
:1071C600896E82D0939081907FD0939281927CD069
:1071D6009394819479D09396819676D0939881985A
:1071E60073D0939A819A70D0939C819C6DD0939E14
:1071F600819E6AD0000E936E000E8A6E65D09490C2
:10720600829062D0949282925FD0949482945CD061
:10721600949C829C59D0949E829E56D0000E946E69
:10722600000E8B6E51D036C038F037C039F0395069
:107236000F0AD8B404D0730AD8B40CD045D038504D
:10724600800AD8B4BAD7010AD8B4D4D7030AD8B4B6
:10725600E5D73AD03850000AD8B49DD7010AD8B439
:107266009DD7030AD8B49DD7010AD8B49DD7070A7B
:10727600D8B49DD7010AD8B49DD70D0AD8B4A2D7E1
:10728600010AD8B4A2D7030AD8B4A2D7010AD8B43F
:10729600A2D7070AD8B4A2D7010AD8B4A2D7030A3C
:1072A600D8B4A2D7010AD8B4A2D71F0AD8B4A7D790
:1072B600010AD8B4A7D7030AD8B4A7D7040AD8B402
:1072C600A7D7010AD8B4A7D712005AEC33F09D0EFF
:1072D600376E200E366E55EC35F0800E000100013B
:1072E600A96F250E0001AA6F000E0001AB6F000EFC
:1072F6000001AC6F05EC35F031EC3CF0C10ED56EFB
:10730600100ED66ED08EF28EF28A84A6FF0006503C
:107316000510D8B46ED07C0E376E0F0E366E7FEC2D
:1073260036F0010E3D6EF40E3C6E36EC33F07F0EF9
:10733600386E460E376EB0EC33F0000E00010001D9
:10734600AE6F270E0001AD6F16EC3AF07F0E386E69
:10735600C80E376EB0EC33F0000E00010001AE6FC0
:10736600570E0001AD6F16EC3AF07F0E386EDB0E4D
:10737600376EB0EC33F0000E00010001AE6F290E3F
:107386000001AD6F16EC3AF07F0E386EB50E376E13
:10739600B0EC33F09CC0ADF09DC0AEF016EC3AF008
:1073A6007F0E386EEE0E376EB0EC33F0000E106EB8
:1073B600000E0F6E050E0F5C000E1058D8B019D0D7
:1073C60006500510D8B412D00001B96F000E1B6E1E
:1073D6000001B951030E3D6EE80E3C6E36EC33F0FB
:1073E6007C0E376E0F0E366E7FEC36F00F4A102A83
:1073F600E1D7010E000100019C27000E00019D232C
:10740600000E00019E23000E00019F230001B96FAC
:10741600000E1B6E0001B951010E3D6EF40E3C6E5E
:1074260036EC33F072D7100E00010001AD5D270E69
:107436000001AE59D8A01ED0270E406E100E3F6E2A
:10744600ADC03DF0AEC03EF039EC34F03DC0A7F023
:107456003EC0A8F0000E00010001AA6F0A0E00014E
:10746600A96F72EC34F000010001A7514624300FD9
:1074760048EC32F0E80E00010001AD5D030E00019C
:10748600AE59D8A01DD0030E406EE80E3F6EADC0BB
:107496003DF0AEC03EF039EC34F03DC0A7F03EC042
:1074A600A8F0000E00010001AA6F0A0E0001A96FE4
:1074B60072EC34F000010001A751300F48EC32F0B5
:1074C600640E00010001AD5D000E0001AE59D8A0AA
:1074D6001ED0000E406E640E3F6EADC03DF0AEC0D5
:1074E6003EF039EC34F03DC0A7F03EC0A8F0000EE7
:1074F60000010001AA6F0A0E0001A96F72EC34F0B8
:1075060000010001A7514624300F48EC32F00A0E64
:1075160000010001AD5D000E0001AE59D8A01ED0DD
:10752600000E406E0A0E3F6EADC03DF0AEC03EF09E
:1075360039EC34F03DC0A7F03EC0A8F0000E0001C3
:107546000001AA6F0A0E0001A96F72EC34F0000167
:107556000001A7514624300F48EC32F0ADC0A7F029
:10756600AEC0A8F0000E00010001AA6F0A0E0001CD
:10757600A96F72EC34F000010001A7514624300FC8
:1075860048EC32F012000600EACF2BF0E1CF2CF0E7
:10759600E2CF2DF0D9CF2EF0DACF2FF0F3CF30F0A7
:1075A600F4CF31F0F6CF32F0F7CF33F0F8CF34F036
:1075B600F5CF35F0F2A458D0F2940F4A102A000EF7
:1075C6000F5C010E1058D8A004D0000E106E000EED
:1075D6000F6E000100016151266E276A26500F5C6E
:1075E60027501058D8A007D07C0E236E120E226E9C
:1075F60002EC37F006D07C0E236E120E226E32ECB1
:1076060038F0000100016251266E276A26500F5C91
:1076160027501058D8A007D07C0E236E100E226E6D
:1076260002EC37F006D07C0E236E100E226E32EC82
:1076360038F0000100016351266E276A26500F5C60
:1076460027501058D8A007D07C0E236E110E226E3C
:1076560002EC37F006D07C0E236E110E226E32EC51
:1076660038F0D650100FD66E9EAADBD0F29A9E9AAC
:107676001B50010D00017E0EF324D96E0001000E91
:10768600F420DA6E63EC32F0DF6E1B50010D000160
:107696007E0EF324D96E0001000EF420DA6E4F0E32
:1076A600DF6208D0000E0A6E010E096E266E000E0D
:1076B6001B6E26500D0E1A640CD0000100017E517F
:1076C600410AD8A406D01BC01AF0000E086E010E9F
:1076D600076E1B50010D00017E0EF324D96E0001CA
:1076E600000EF420DA6E520EDF620AD0266E000E0D
:1076F6001B6E2650266E520E000100017E6F26502C
:10770600020E1B641DD0000100017E51520AD8A44E
:1077160017D07FC061F080C062F081C063F0266E32
:10772600000E1B6E2650266E200E000100017E6F95
:1077360026507C0E236E0F0E226EFCEC35F0F28A7C
:107746001B2A1BC01AF01C0E1B6459D0266E000E95
:107756001B6E265054D0000E086E000E076E000EEB
:10776600046E010E036E266E000E1A6E2650000E73
:10777600086E000E076E266E000E1B6E2650000E5B
:10778600026E010E016E7C0E236E0F0E226E02EC4F
:1077960037F0000E066E010E0FD0000E086E000EBA
:1077A600076E266E000E1B6E26507C0E236E0F0E85
:1077B600226E32EC38F01FD0056E33D0000E086E04
:1077C600000E076E266E000E1B6E26507C0E236E74
:1077D6000F0E226E02EC37F00ED0000E086E000E71
:1077E600076E266E000E1B6E26507C0E236E0F0E45
:1077F600226EFCEC35F0000E066E000EDDD70001A1
:1078060000017E51440AD8B4C8D7080AD8B4AFD705
:10781600030AD8B4A0D71F0AD8B4D0D7040AD8B45C
:10782600DCD735C0F5FF34C0F8FF33C0F7FF32C0F0
:10783600F6FF31C0F4FF30C0F3FF2FC0DAFF2EC0D1
:10784600D9FF2DC0E2FF2CC0E1FF2BC0EAFF2AC002
:10785600E9FF29C0FBFF28C0FAFF1100210E59ECF1
:1078660032F00009D8B4A7D1220E59EC32F0000943
:10787600D8B4A1D1230E59EC32F00009D8B49BD16B
:10788600040EB06EE10EAF6E000E3D6E0A0E3C6E3B
:1078960036EC33F07F0E3A6E430E396E84EC33F0DD
:1078A600000E3D6EC80E3C6E36EC33F009040A102D
:1078B600D8A46FD0406E000E366E4050230E72EC88
:1078C60032F07C0E376E0F0E366E7FEC36F07F0E82
:1078D6003A6E230E396E84EC33F0000E3D6E640E64
:1078E6003C6E36EC33F07C0E376E0F0E366E7FEC48
:1078F60036F0000E3D6E640E3C6E36EC33F07C0EB8
:10790600376E0F0E366E7FEC36F07E0E3A6EF80E40
:10791600396E84EC33F0000E3D6E640E3C6E36EC30
:1079260033F07C0E376E0F0E366E7FEC36F0000E9F
:107936003D6E640E3C6E36EC33F07C0E376E0F0EE9
:10794600366E7FEC36F07F0E3A6E350E396E84EC6D
:1079560033F0000E3D6E640E3C6E36EC33F07C0E5A
:10796600376E0F0E366E7FEC36F0000E3D6E640EEF
:107976003C6E36EC33F07C0E376E0F0E366E7FECB7
:1079860036F0000E0C6E010E0B6E000E0A6E000E27
:10799600096E090EB06EC30EAF6E000E3D6E0A0E76
:1079A6003C6E36EC33F07F0E3A6E430E396E84EC45
:1079B60033F0000E3D6EC80E3C6E36EC33F0090413
:1079C6000A10D8A46FD0406E000E366E4050230EBB
:1079D60072EC32F07C0E376E0F0E366E7FEC36F0A0
:1079E6007F0E3A6E230E396E84EC33F0000E3D6E38
:1079F600640E3C6E36EC33F07C0E376E0F0E366E30
:107A06007FEC36F0000E3D6E640E3C6E36EC33F0C5
:107A16007C0E376E0F0E366E7FEC36F07E0E3A6EAB
:107A2600F80E396E84EC33F0000E3D6E640E3C6E3B
:107A360036EC33F07C0E376E0F0E366E7FEC36F07A
:107A4600000E3D6E640E3C6E36EC33F07C0E376EE7
:107A56000F0E366E7FEC36F07F0E3A6E350E396EAF
:107A660084EC33F0000E3D6E640E3C6E36EC33F063
:107A76007C0E376E0F0E366E7FEC36F0000E3D6EC6
:107A8600640E3C6E36EC33F07C0E376E0F0E366E9F
:107A96007FEC36F0000E0C6E010E0B6E000E0A6EB9
:107AA600000E096E020EB06E700EAF6E000E3D6EC9
:107AB6000A0E3C6E36EC33F07F0E3A6E430E396E8C
:107AC60084EC33F0000E3D6EC80E3C6E36EC33F09F
:107AD60009040A10D8A46FD0406E000E366E4050CE
:107AE600230E72EC32F07C0E376E0F0E366E7FEC84
:107AF60036F07F0E3A6E230E396E84EC33F0000EAC
:107B06003D6E640E3C6E36EC33F07C0E376E0F0E17
:107B1600366E7FEC36F0000E3D6E640E3C6E36EC33
:107B260033F07C0E376E0F0E366E7FEC36F07E0E1F
:107B36003A6EF80E396E84EC33F0000E3D6E640E2C
:107B46003C6E36EC33F07C0E376E0F0E366E7FECE5
:107B560036F0000E3D6E640E3C6E36EC33F07C0E55
:107B6600376E0F0E366E7FEC36F07F0E3A6E350EA0
:107B7600396E84EC33F0000E3D6E640E3C6E36ECCE
:107B860033F07C0E376E0F0E366E7FEC36F0000E3D
:107B96003D6E640E3C6E36EC33F07C0E376E0F0E87
:107BA600366E7FEC36F0000E0C6E010E0B6E000E7C
:107BB6000A6E000E096E230E59EC32F00009D8A4A5
:107BC6002DD02A0EF66E7F0EF76E0800F550600A6D
:107BD600D8A404D0040EB06EE10EAF6E2A0EF66E77
:107BE6007F0EF76E0800F550620AD8A404D0020E84
:107BF600B06E700EAF6E2A0EF66E7F0EF76E080030
:107C0600F5506A0AD8A404D0090EB06EC30EAF6E42
:107C1600000E3D6E640E3C6E36EC33F0210E59ECD0
:107C260032F00009D8B4C8D0220E59EC32F000095F
:107C3600D8B4C2D0230E59EC32F00009D8B4BCD067
:107C4600020EB06E700EAF6E000E3D6E0A0E3C6EEA
:107C560036EC33F07F0E3A6E2C0E396E84EC33F030
:107C6600010E3D6EF40E3C6E36EC33F01A0E83ECCC
:107C760032F0010E3D6EF40E3C6E36EC33F00A50D7
:107C86000910D8A41FD0040EB06EE10EAF6E000E20
:107C96003D6E0A0E3C6E36EC33F07F0E3A6E2C0EBD
:107CA600396E84EC33F0010E3D6EF40E3C6E36EC0C
:107CB60033F01A0E83EC32F0010E3D6EF40E3C6E7C
:107CC60036EC33F00A500910D8A41FD0010EB06E5E
:107CD600370EAF6E000E3D6E0A0E3C6E36EC33F07C
:107CE6007F0E3A6E2C0E396E84EC33F0010E3D6E2B
:107CF600F40E3C6E36EC33F01A0E83EC32F0010EC5
:107D06003D6EF40E3C6E36EC33F0330EF66E7F0E9F
:107D1600F76E0800F550680AD8A404D0040EB06EB9
:107D2600E10EAF6E330EF66E7F0EF76E0800F5505D
:107D36006A0AD8A404D0020EB06E700EAF6E330E6F
:107D4600F66E7F0EF76E0800F5506C0AD8A404D0C4
:107D5600010EB06E370EAF6E010E3D6EF40E3C6E28
:107D660036EC33F07F0E3A6E090E396E84EC33F042
:107D7600010E3D6EF40E3C6E36EC33F01A0E83ECBB
:107D860032F0010E3D6EF40E3C6E36EC33F0090413
:107D96000A10D8A411D0406E000E366E4050210E47
:107DA60072EC32F0000E0A6E000E096E000E3D6E89
:107DB6000A0E3C6E36EC33F0210E59EC32F0000917
:107DC600D8A427D0330EF66E7F0EF76E0800F55056
:107DD600680AD8A404D0040EB06EE10EAF6E330E5E
:107DE600F66E7F0EF76E0800F5506A0AD8A404D026
:107DF600020EB06E700EAF6E330EF66E7F0EF76E1D
:107E06000800F5506C0AD8A404D0010EB06E370EE7
:107E1600AF6E210E59EC32F00009D8B428D0220EEC
:107E260059EC32F00009D8B422D0230E59EC32F0C6
:107E36000009D8B41CD0000E0A6E000E096EDCECE8
:107E460033F0F19E09040A10D8A411D0406E000E3A
:107E5600366E4050220E72EC32F0000E0A6E000EA4
:107E6600096E000E3D6E0A0E3C6E36EC33F0220EA5
:107E760059EC32F00009D8A427D0D90EF66E7E0E42
:107E8600F76E0800F550720AD8A404D0040EB06E3E
:107E9600E10EAF6ED90EF66E7E0EF76E0800F55047
:107EA600620AD8A404D0020EB06E700EAF6ED90E60
:107EB600F66E7E0EF76E0800F550660AD8A404D05A
:107EC600010EB06E370EAF6E12000082A856AA825F
:107ED600A4A87A6272646060586058601A140082BE
:107EE600A8569C829A8A7AA6C2DCAAA684626A1AD4
:107EF600140082A8569C829A8A909ABEA6C2DCAAD0
:107F0600A6840082A8569C829A8AA6C2DCAAA68467
:107F1600620082A856A48AA68AA81A140082A856C5
:107F26008482AA886A0082A8568482AA886A008205
:107F3600A856A48AA68AA80082A81A140082A800B5
:107F460068747470733A2F2F646F63732E676F6F44
:107F5600676C652E636F6D2F666F726D732F642F5E
:107F660031505A4F716A6E69744552306D303349DB
:107F76007834723967444271687037587331597270
:107F8600506D6A4C796D4532565741552F666F7262
:107F96006D526573706F6E73653F69667126656EA7
:107FA6007472792E3936323032333038393D002604
:107FB600656E7472792E313538393238343333334D
:107FC6003D0026656E7472792E3134363832363677
:107FD6003733333D0026656E7472792E313630396B
:107FE6003930343935373D00267375626D69743D15
:0A7FF6005375626D69742A000000E3
:020000040020DA
:08000000FFFFFFFFFFFFFFFF00
:020000040030CA
:0E00000000051F1FFF8385FF0FC00FE00F409C
:00000001FF
