:041000000CEF08F0F9
:10100800FACF07F0FBCF08F0E9CF09F0B4ED3AF0DA
:0410180077EF32F04C
:10633800DF0F20200FDF20202020E8CF15F0ACA2AF
:10634800FED746501524AD6E1200E8CF15F0FA0EB0
:1063580000F0E82EFDD7152EFAD71200E8CF15F079
:1063680046501524C16E4650070FC06E1200E8CF84
:1063780015F015C0A9FFA694A69EA69CA680A850B5
:106388001200F20E3516ABAC03D03590ABB03580A9
:10639800ABB43584ABB23586AECF01F001501200F4
:1063A800E8CF16F0A69EA69CA68416C0A9FF15C025
:1063B800A8FF550EA76EAA0EA76EA682A6A2120067
:1063C800FDD7E8CF17F0ACA2FED7B8A603D0156A60
:1063D800152A01D0156A17C016F0152A02D0D890D0
:1063E8001632152EFCD716504624AD6E12001550E5
:1063F8001702F3CF19F0F4CF1AF015501802F3CFA3
:10640800F4FFF36AF3501926F4501A2216501702B3
:10641800F3CFF4FFF36AF3501926F4501A2219C087
:1064280015F01AC016F012007C0E166E0F0E156EBF
:1064380031EC36F0010E1C6EF40E1B6E98EC32F047
:106448007F0E196E3E0E186EBCEC32F07C0E166E86
:106458000F0E156E31EC36F0030E1C6EE80E1B6E37
:1064680098EC32F012007C0E166E0F0E156E31ECA1
:1064780036F0030E1C6EE80E1B6E98EC32F07F0EA1
:10648800196E180E186EBCEC32F07C0E166E0F0EDC
:10649800156E31EC36F0070E1C6ED00E1B6E98ECA4
:1064A80032F012007C0E166E0A0E156E4CEC37F0A8
:1064B800020EB06E700EAF6E18EC32F02A50291032
:1064C800D8A406D0010EB06E370EAF6E18EC32F0BD
:1064D8002A502910D8A406D0040EB06EE10EAF6E73
:1064E80018EC32F0120000EE60F0480EEE6AE80692
:1064F800FDE100EE23F01F0EEE6AE806FDE1380E1E
:10650800F66E630EF76E000EF86E00EE42F010EEB7
:106518000AF00900F5CFEEFFE550E150FAE1000E70
:10652800F86E0001DEEF39F04650FD0FA96E4650B7
:10653800A9240B0BA66EA866FED7000E1E6E000ED1
:106548001D6E05D0010EA9EC31F01D4A1E2A1BC094
:1065580015F01CC016F0000E186E0C0E176EFBEC32
:1065680031F015501D5C16501E58D8B01200EAD7ED
:106578001A6E000E396E1A5013D03950010D18C01A
:106588001AF019C01BF0F3501A26F4501B221AC037
:10659800F6FF1BC0F7FF0800F550E5EC31F0392A8B
:1065A8003950010D18C01AF019C01BF0F3501A2603
:1065B800F4501B221AC0F6FF1BC0F7FF0800F55065
:1065C8000009D8B41200D9D7FD0EA96EA9500B0B3B
:1065D800A66EA866FED742C0A8F043C0A9F0000E78
:1065E800186E7E0E176EA9CF15F0166A6BEC34F094
:1065F800153A163AF00E161615500F0B1612F00E25
:10660800151615C0AAF016C0ABF05BEC35F000010A
:106618000001A851476E4750BBEC31F0466E12009E
:10662800186E000E396E185013D03950010D16C06F
:1066380018F017C019F0F3501826F450192218C092
:10664800F6FF19C0F7FF0800F550A1EC31F0392A20
:106658003950010D16C018F017C019F0F35018265C
:10666800F450192218C0F6FF19C0F7FF0800F550BA
:106678000009D8B41200D9D756EC32F0000E2A6EB1
:10668800000E296E7E0E196ED10E186EBCEC32F01B
:106698007C0E166E0F0E156E31EC36F0030E1C6E66
:1066A800E80E1B6E98EC32F07E0E196EE50E186E31
:1066B800BCEC32F07C0E166E0F0E156E31EC36F017
:1066C800030E1C6EE80E1B6E98EC32F06DEC33F086
:1066D80012007C0E166E0A0E156E7FEC38F037EC41
:1066E80032F0D90EF66E7E0EF76E0800F550720A7B
:1066F800D8A404D0040EB06EE10EAF6ED90EF66EBB
:106708007E0EF76E0800F550620AD8A404D0020E77
:10671800B06E700EAF6ED90EF66E7E0EF76E080074
:10672800F550660AD8A404D0010EB06E370EAF6ECD
:106738001200000E1E6E000E1F6E000E206E000E60
:10674800216E1C5019101A101B10D8B42CD01D6EB5
:10675800010E226E1D5006D0D89019361A361B36F7
:106768001C36222A1CAEF8D7D8901E361F36203683
:1067780021361950155C1A5016581B5017581C50C2
:106788001858D8A009D01950155E1A50165A1B501F
:10679800175A1C50185A1E80D8901C321B321A32B5
:1067A8001932222EE1D71EC015F01FC016F020C0E6
:1067B80017F021C018F0120000010001B251B11108
:1067C800D8B43AD00001B36F010E00010001B46FD4
:1067D8000001B35109D0000100010001D890B13780
:1067E800B23700010001B42B00010001B2AFF3D7AA
:1067F80000010001B15100010001AF5D000100017D
:10680800B25100010001B059D8A00CD0000100011C
:10681800B15100010001AF5F00010001B251000158
:106828000001B05B000100010001D890B233B13320
:1068380000010001B42FDCD7AFC0AFF0B0C0B0F09A
:106848001200E8CF21F015D0010E11D0050E0FD09F
:10685800090E0DD00D0E0BD0110E09D0210E07D048
:10686800250E05D0290E03D02D0E01D0310EC26E93
:106878001FD02150000AD8B4E7D7010AD8B4E6D708
:10688800030AD8B4E5D7010AD8B4E4D7070AD8B4BC
:10689800E3D70C0AD8B4E2D7010AD8B4E1D7030A7F
:1068A800D8B4E0D7010AD8B4DFD7070AD8B4DED7FE
:1068B800000E1C6E0A0E1B6E98EC32F0C08EC2825F
:1068C800C2B2FED7C3CF1FF0C4CF20F01200196E9A
:1068D800000E1B6E19501650800AF36E800EF35C82
:1068E800000ED8B4155CD8B008D0156C161ED8B0F8
:1068F800162A196E010E1B6E19501850800AF36E75
:10690800800EF35C000ED8B4175CD8B004D0176CB6
:10691800181ED8B0182A18501710D8B41AD0196EE3
:10692800010E1A6E195004D0D890173618361A2A44
:1069380018AEFAD71750155C18501658D8A004D0BE
:106948001750155E1850165AD890183217321A2E4A
:10695800F1D71B50D8B404D0156C161ED8B0162A1F
:1069680015C015F016C016F01200948E949C240ED3
:10697800AC6E900EAB6E080EB86E000E156E1B0E48
:10698800166EB70E176E000E186EA8C019F0A9C0C3
:106998001AF0AAC01BF0ABC01CF09DEC33F015C078
:1069A800ACF016C0ADF017C0AEF018C0AFF046504E
:1069B8000001AC250001B06F000E0001AD210001FF
:1069C800B16F000E0001AE210001B26F000E000190
:1069D800AF210001B36FFF0E0001B02500010001D7
:1069E800B46FFF0E0001B1210001B56FFF0E000169
:1069F800B2210001B66FFF0E0001B3210001B76F8D
:106A0800B5C0B0FFB4C0AFFF1200D08EF28E1AD05E
:106A1800F28AD58E4BD09D80CD8048D09D82CA8485
:106A280045D0A082B18042D0F288F19C3FD0F08658
:106A3800F19A3CD0F088F19839D09D8C37D09D8A56
:106A48009F8A34D015C017F016C018F018509D0A48
:106A5800D8B40AD03D0AD8B415D0500AD8B417D043
:106A6800020AD8B41CD022D01750010AD8B4D3D700
:106A7800030AD8B4D3D7220AD8B4E1D7600AD8B465
:106A8800DCD714D01750020AD8B4CBD70FD0175080
:106A9800080AD8B4CCD7180AD8B4CCD707D017501E
:106AA800100AD8B4C1D7300AD8B4B2D71200000E31
:106AB80000010001AE6F000E0001AD6F0001000182
:106AC800AB51AA11D8B441D0226E010E00010001C9
:106AD800AC6F225009D0000100010001D890AA37FC
:106AE800AB3700010001AC2B00010001ABAFF3D7BD
:106AF800000100010001D890AD37AE370001000158
:106B0800AA5100010001A85D00010001AB5100017C
:106B18000001A959D8A00FD000010001AA51000115
:106B28000001A85F00010001AB5100010001A95B51
:106B380000010001AD81000100010001D890AB33D4
:106B4800AA3300010001AC2FD3D7ADC0A8F0AEC066
:106B5800A9F012003CD0929080707ED09292807200
:106B68007BD09294807478D09296807675D09298E3
:106B7800807872D0929A807A6FD0939081706CD01E
:106B88009392817269D09394817466D0939681763A
:106B980063D09398817860D0939A817A5DD0939CE2
:106BA800817C5AD0939E817E57D09490827054D025
:106BB8009492827251D0949482744ED0949C827C28
:106BC8004BD0949E827E48D0959E837E45D001C04E
:106BD80003F002C004F004507C0AD8A43DD003504E
:106BE800000AD8B4B8D7010AD8B4B8D7030AD8B4B9
:106BF800B8D7010AD8B4B8D7070AD8B4B8D7010AA1
:106C0800D8B4B8D70D0AD8B4B8D7010AD8B4B8D709
:106C1800030AD8B4B8D7010AD8B4B8D7070AD8B481
:106C2800B8D7010AD8B4B8D7030AD8B4B8D7010A74
:106C3800D8B4B8D71F0AD8B4B8D7010AD8B4B8D7C7
:106C4800030AD8B4B8D7040AD8B4B8D7010AD8B454
:106C5800B8D7080AD8B4B8D712003CD09290807040
:106C68007ED0929280727BD09294807478D09296E3
:106C7800807675D09298807872D0929A807A6FD008
:106C8800939081706CD09392817269D0939481743F
:106C980066D09396817663D09398817860D0939AE2
:106CA800817A5DD0939C817C5AD0939E817E57D007
:106CB8009490827054D09492827251D09494827439
:106CC8004ED0949C827C4BD0949E827E48D0959ED8
:106CD800837E45D015C017F016C018F018507C0AEE
:106CE800D8A43DD01750000AD8B4B8D7010AD8B4F0
:106CF800B8D7030AD8B4B8D7010AD8B4B8D7070A9E
:106D0800D8B4B8D7010AD8B4B8D70D0AD8B4B8D708
:106D1800010AD8B4B8D7030AD8B4B8D7010AD8B486
:106D2800B8D7070AD8B4B8D7010AD8B4B8D7030A6D
:106D3800D8B4B8D7010AD8B4B8D71F0AD8B4B8D7C6
:106D4800010AD8B4B8D7030AD8B4B8D7040AD8B453
:106D5800B8D7010AD8B4B8D7080AD8B4B8D7120037
:106D680045D09290808093D09292808290D09294D5
:106D780080848DD0929680868AD09298808887D099
:106D8800929A808A84D0000E926E896880D09390FF
:106D980081807DD0939281827AD09394818477D0B8
:106DA8009396818674D09398818871D0939A818ABA
:106DB8006ED0939C818C6BD0939E818E68D0000E90
:106DC800936E8A6864D09490828061D09492828213
:106DD8005ED0949482845BD0949C828C58D0949E8C
:106DE800828E55D0000E946E8B6851D001C003F08E
:106DF80002C004F004500F0AD8B404D0730AD8B4FF
:106E08000CD045D00350800AD8B4BDD7010AD8B4F5
:106E1800D6D7030AD8B4E6D73AD00350000AD8B474
:106E2800A0D7010AD8B4A0D7030AD8B4A0D7010ABA
:106E3800D8B4A0D7070AD8B4A0D7010AD8B4A0D725
:106E48000D0AD8B4A4D7010AD8B4A4D7030AD8B471
:106E5800A4D7010AD8B4A4D7070AD8B4A4D7010A7A
:106E6800D8B4A4D7030AD8B4A4D7010AD8B4A4D7ED
:106E78001F0AD8B4A8D7010AD8B4A8D7030AD8B427
:106E8800A8D7040AD8B4A8D7010AD8B4A8D712003A
:106E980045D09290808093D09292808290D09294A4
:106EA80080848DD0929680868AD09298808887D068
:106EB800929A808A84D0000E926E896880D09390CE
:106EC80081807DD0939281827AD09394818477D087
:106ED8009396818674D09398818871D0939A818A89
:106EE8006ED0939C818C6BD0939E818E68D0000E5F
:106EF800936E8A6864D09490828061D094928282E2
:106F08005ED0949482845BD0949C828C58D0949E5A
:106F1800828E55D0000E946E8B6851D015C017F034
:106F280016C018F018500F0AD8B404D0730AD8B491
:106F38000CD045D01750800AD8B4BDD7010AD8B4B0
:106F4800D6D7030AD8B4E6D73AD01750000AD8B42F
:106F5800A0D7010AD8B4A0D7030AD8B4A0D7010A89
:106F6800D8B4A0D7070AD8B4A0D7010AD8B4A0D7F4
:106F78000D0AD8B4A4D7010AD8B4A4D7030AD8B440
:106F8800A4D7010AD8B4A4D7070AD8B4A4D7010A49
:106F9800D8B4A4D7030AD8B4A4D7010AD8B4A4D7BC
:106FA8001F0AD8B4A8D7010AD8B4A8D7030AD8B4F6
:106FB800A8D7040AD8B4A8D7010AD8B4A8D7120009
:106FC80048D09290809096D09292809293D092944A
:106FD800809490D0929680968DD0929880988AD0FE
:106FE800929A809A87D0000E926E000E896E82D097
:106FF800939081907FD0939281927CD09394819446
:1070080079D09396819676D09398819873D0939AF5
:10701800819A70D0939C819C6DD0939E819E6AD0FA
:10702800000E936E000E8A6E65D09490829062D0A6
:10703800949282925FD0949482945CD0949C829C27
:1070480059D0949E829E56D0000E946E000E8B6E80
:1070580051D001C003F002C004F004500F0AD8B4A4
:1070680004D0730AD8B40CD045D00350800AD8B4E1
:10707800BAD7010AD8B4D4D7030AD8B4E5D73AD0D6
:107088000350000AD8B49DD7010AD8B49DD7030A83
:10709800D8B49DD7010AD8B49DD7070AD8B49DD7CC
:1070A800010AD8B49DD70D0AD8B4A2D7010AD8B41A
:1070B800A2D7030AD8B4A2D7010AD8B4A2D7070A1C
:1070C800D8B4A2D7010AD8B4A2D7030AD8B4A2D791
:1070D800010AD8B4A2D71F0AD8B4A7D7010AD8B4CE
:1070E800A7D7030AD8B4A7D7040AD8B4A7D7010AE0
:1070F800D8B4A7D7120048D09290809096D0929298
:10710800809293D09294809490D0929680968DD0CD
:10711800929880988AD0929A809A87D0000E926E20
:10712800000E896E82D0939081907FD09392819245
:107138007CD09394819479D09396819676D09398C5
:10714800819873D0939A819A70D0939C819C6DD0CA
:10715800939E819E6AD0000E936E000E8A6E65D053
:107168009490829062D0949282925FD09494829408
:107178005CD0949C829C59D0949E829E56D0000EDE
:10718800946E000E8B6E51D015C017F016C018F013
:1071980018500F0AD8B404D0730AD8B40CD045D00C
:1071A8001750800AD8B4BAD7010AD8B4D4D7030A7A
:1071B800D8B4E5D73AD01750000AD8B49DD7010AF9
:1071C800D8B49DD7030AD8B49DD7010AD8B49DD79F
:1071D800070AD8B49DD7010AD8B49DD70D0AD8B4E8
:1071E800A2D7010AD8B4A2D7030AD8B4A2D7010AF1
:1071F800D8B4A2D7070AD8B4A2D7010AD8B4A2D75C
:10720800030AD8B4A2D7010AD8B4A2D71F0AD8B49F
:10721800A7D7010AD8B4A7D7030AD8B4A7D7040AAE
:10722800D8B4A7D7010AD8B4A7D71200100E000106
:107238000001B55D270E0001B659D8A023D0270E4E
:1072480000010001AB6F100E0001AA6FB5C0A8F0D5
:10725800B6C0A9F05BEC35F00001A8C0AFF00001A2
:10726800A9C0B0F0000E00010001B26F0A0E0001C3
:10727800B16FE0EC33F000010001AF514624300F4C
:10728800A1EC31F0E80E00010001B55D030E00012C
:10729800B659D8A022D0030E00010001AB6FE80E4A
:1072A8000001AA6FB5C0A8F0B6C0A9F05BEC35F034
:1072B8000001A8C0AFF00001A9C0B0F0000E0001A5
:1072C8000001B26F0A0E0001B16FE0EC33F000016B
:1072D8000001AF51300FA1EC31F0640E0001000144
:1072E800B55D000E0001B659D8A023D0000E0001EC
:1072F8000001AB6F640E0001AA6FB5C0A8F0B6C05C
:10730800A9F05BEC35F00001A8C0AFF00001A9C0FE
:10731800B0F0000E00010001B26F0A0E0001B16F5B
:10732800E0EC33F000010001AF514624300FA1EC2E
:1073380031F00A0E00010001B55D000E0001B659DA
:10734800D8A023D0000E00010001AB6F0A0E000187
:10735800AA6FB5C0A8F0B6C0A9F05BEC35F0000183
:10736800A8C0AFF00001A9C0B0F0000E00010001F4
:10737800B26F0A0E0001B16FE0EC33F000010001BA
:10738800AF514624300FA1EC31F0B5C0AFF0B6C014
:10739800B0F0000E00010001B26F0A0E0001B16FDB
:1073A800E0EC33F000010001AF514624300FA1ECAE
:1073B80031F01200E8EC32F09D0E166E200E156EBC
:1073C80009EC35F0800E00010001A86F250E0001C0
:1073D800A96F000E0001AA6F000E0001AB6FB9EC97
:1073E80034F00D0EB2EC31F031EC3CF0C10ED56E3C
:1073F800100ED66ED08EF28EF28A84A6FF00285028
:107408002710D8B493D07C0E166E0F0E156E31EC83
:1074180036F0010E1C6EF40E1B6E98EC32F07F0EE7
:10742800176E460E166E14EC33F0000E25EC34F091
:107438001FC0B5F020C0B6F01AEC39F07F0E176EF9
:10744800C80E166E14EC33F0010E25EC34F01FC094
:10745800B9F020C0BAF0010E186EA40E176EB9C0AC
:1074680015F0BAC016F0FBEC31F015C0A8F016C044
:10747800A9F0030E00010001AB6FFF0E0001AA6F17
:107488005BEC35F00001A8C02FF00001A9C030F076
:107498002FC0B5F030C0B6F01AEC39F07F0E176E79
:1074A800DB0E166E14EC33F0000E00010001B66F0F
:1074B800290E0001B56F1AEC39F07F0E176EB50E64
:1074C800166E14EC33F09CC0B5F09DC0B6F01AEC03
:1074D80039F07F0E176EEE0E166E14EC33F0000EB8
:1074E8002E6E000E2D6E050E2D5C000E2E58D8B097
:1074F80019D028502710D8B412D00001B86F000E48
:107508003B6E0001B851000E1C6E640E1B6E98ECA9
:1075180032F07C0E166E0F0E156E31EC36F02D4AD9
:107528002E2AE1D7000E286E000E276E010E0001EC
:1075380000019C27000E00019D23000E00019E23E0
:10754800000E00019F230001B86F000E3B6E000182
:10755800B851010E1C6E2C0E1B6E98EC32F04DD7F4
:107568000600EACF0AF0E1CF0BF0E2CF0CF0D9CF5A
:107578000DF0DACF0EF0F3CF0FF0F4CF10F0F6CF16
:1075880011F0F7CF12F0F8CF13F0F5CF14F0F2A402
:1075980058D0F2942D4A2E2A000E2D5C010E2E583A
:1075A800D8A004D0000E2E6E000E2D6E0001000132
:1075B8006151056E066A05502D5C06502E58D8A0FC
:1075C80007D07C0E026E120E016EB4EC36F006D0B7
:1075D8007C0E026E120E016EE4EC37F00001000121
:1075E8006251056E066A05502D5C06502E58D8A0CB
:1075F80007D07C0E026E100E016EB4EC36F006D089
:107608007C0E026E100E016EE4EC37F000010001F2
:107618006351056E066A05502D5C06502E58D8A099
:1076280007D07C0E026E110E016EB4EC36F006D057
:107638007C0E026E110E016EE4EC37F0D650100F7E
:10764800D66E9EAAEDD0F29A9E9A3B50010D00018B
:107658007E0EF324D96E0001000EF420DA6EC5EC1C
:1076680031F0DF6E3B50010D00017E0EF324D96E20
:107678000001000EF420DA6E4F0EDF6208D0000E13
:107688002A6E010E296E056E000E3B6E05500D0E1A
:107698003A640FD0000100017E51410AD8A409D0F4
:1076A8003BC03AF0000E00010001A16F010E00017D
:1076B800A06F3B50010D00017E0EF324D96E00012E
:1076C800000EF420DA6E520EDF620AD0056E000E4C
:1076D8003B6E0550056E520E000100017E6F05508D
:1076E800020E3B641DD0000100017E51520AD8A44D
:1076F80017D07FC061F080C062F081C063F0056E72
:10770800000E3B6E0550056E200E000100017E6FD5
:1077180005507C0E026E0F0E016EAEEC35F0F28A4B
:107728003B2A3BC03AF01C0E3B6468D0056E000E45
:107738003B6E055063D0000E00010001A16F000EE2
:107748000001A06F000E266E010E256E056E000E5C
:107758003A6E0550000E00010001A16F000E0001F5
:10776800A06F056E000E3B6E0550000E246E010ED4
:10777800236E7C0E026E0F0E016EB4EC36F0000E16
:10778800286E010E12D0000E00010001A16F000E3C
:107798000001A06F056E000E3B6E05507C0E026E58
:1077A8000F0E016EE4EC37F025D0276E39D0000EAD
:1077B80000010001A16F000E0001A06F056E000E10
:1077C8003B6E05507C0E026E0F0E016EB4EC36F067
:1077D80011D0000E00010001A16F000E0001A06F82
:1077E800056E000E3B6E05507C0E026E0F0E016E8C
:1077F800AEEC35F0000E286E000ED7D70001000160
:107808007E51440AD8B4BFD7080AD8B4A3D7030A0C
:10781800D8B491D71F0AD8B4CAD7040AD8B4D9D7CC
:1078280014C0F5FF13C0F8FF12C0F7FF11C0F6FF30
:1078380010C0F4FF0FC0F3FF0EC0DAFF0DC0D9FF70
:107848000CC0E2FF0BC0E1FF0AC0EAFF09C0E9FF74
:1078580008C0FBFF07C0FAFF1100210EBBEC31F096
:107868000009D8B4A7D1220EBBEC31F00009D8B476
:10787800A1D1230EBBEC31F00009D8B49BD1040E82
:10788800B06EE10EAF6E000E1C6E0A0E1B6E98EC09
:1078980032F07F0E196E430E186EBCEC32F0000EFB
:1078A8001C6EC80E1B6E98EC32F029042A10D8A45E
:1078B8006FD01F6E000E156E1F50230ED4EC31F0E2
:1078C8007C0E166E0F0E156E31EC36F07F0E196EAB
:1078D800230E186EBCEC32F0000E1C6E640E1B6E8C
:1078E80098EC32F07C0E166E0F0E156E31EC36F0F9
:1078F800000E1C6E640E1B6E98EC32F07C0E166E39
:107908000F0E156E31EC36F07E0E196EF80E186EED
:10791800BCEC32F0000E1C6E640E1B6E98EC32F05C
:107928007C0E166E0F0E156E31EC36F0000E1C6EC6
:10793800640E1B6E98EC32F07C0E166E0F0E156EF0
:1079480031EC36F07F0E196E350E186EBCEC32F045
:10795800000E1C6E640E1B6E98EC32F07C0E166ED8
:107968000F0E156E31EC36F0000E1C6E640E1B6E99
:1079780098EC32F07C0E166E0F0E156E31EC36F068
:10798800000E2C6E010E2B6E000E2A6E000E296E54
:10799800090EB06EC30EAF6E000E1C6E0A0E1B6E83
:1079A80098EC32F07F0E196E430E186EBCEC32F074
:1079B800000E1C6EC80E1B6E98EC32F029042A10BB
:1079C800D8A46FD01F6E000E156E1F50230ED4EC76
:1079D80031F07C0E166E0F0E156E31EC36F07F0E00
:1079E800196E230E186EBCEC32F0000E1C6E640E7D
:1079F8001B6E98EC32F07C0E166E0F0E156E31EC85
:107A080036F0000E1C6E640E1B6E98EC32F07C0E85
:107A1800166E0F0E156E31EC36F07E0E196EF80EDE
:107A2800186EBCEC32F0000E1C6E640E1B6E98ECE7
:107A380032F07C0E166E0F0E156E31EC36F0000E1D
:107A48001C6E640E1B6E98EC32F07C0E166E0F0ED8
:107A5800156E31EC36F07F0E196E350E186EBCECD3
:107A680032F0000E1C6E640E1B6E98EC32F07C0E29
:107A7800166E0F0E156E31EC36F0000E1C6E640E8D
:107A88001B6E98EC32F07C0E166E0F0E156E31ECF4
:107A980036F0000E2C6E010E2B6E000E2A6E000EB4
:107AA800296E020EB06E700EAF6E000E1C6E0A0EBE
:107AB8001B6E98EC32F07F0E196E430E186EBCECFC
:107AC80032F0000E1C6EC80E1B6E98EC32F02904C2
:107AD8002A10D8A46FD01F6E000E156E1F50230EEB
:107AE800D4EC31F07C0E166E0F0E156E31EC36F0BC
:107AF8007F0E196E230E186EBCEC32F0000E1C6E51
:107B0800640E1B6E98EC32F07C0E166E0F0E156E1E
:107B180031EC36F0000E1C6E640E1B6E98EC32F0E1
:107B28007C0E166E0F0E156E31EC36F07E0E196E49
:107B3800F80E186EBCEC32F0000E1C6E640E1B6E54
:107B480098EC32F07C0E166E0F0E156E31EC36F096
:107B5800000E1C6E640E1B6E98EC32F07C0E166ED6
:107B68000F0E156E31EC36F07F0E196E350E186E4D
:107B7800BCEC32F0000E1C6E640E1B6E98EC32F0FA
:107B88007C0E166E0F0E156E31EC36F0000E1C6E64
:107B9800640E1B6E98EC32F07C0E166E0F0E156E8E
:107BA80031EC36F0000E2C6E010E2B6E000E2A6E94
:107BB800000E296E230EBBEC31F00009D8A42DD09D
:107BC8002A0EF66E7F0EF76E0800F550600AD8A4EC
:107BD80004D0040EB06EE10EAF6E2A0EF66E7F0E64
:107BE800F76E0800F550620AD8A404D0020EB06EF1
:107BF800700EAF6E2A0EF66E7F0EF76E0800F55007
:107C08006A0AD8A404D0090EB06EC30EAF6E000E77
:107C18001C6E640E1B6E98EC32F0210EBBEC31F03A
:107C28000009D8B4C8D0220EBBEC31F00009D8B492
:107C3800C2D0230EBBEC31F00009D8B4BCD0020E80
:107C4800B06E700EAF6E000E1C6E0A0E1B6E98ECB6
:107C580032F07F0E196E2C0E186EBCEC32F0010E4D
:107C68001C6EF40E1B6E98EC32F01A0EE5EC31F037
:107C7800010E1C6EF40E1B6E98EC32F02A5029107F
:107C8800D8A41FD0040EB06EE10EAF6E000E1C6EAD
:107C98000A0E1B6E98EC32F07F0E196E2C0E186EC1
:107CA800BCEC32F0010E1C6EF40E1B6E98EC32F038
:107CB8001A0EE5EC31F0010E1C6EF40E1B6E98ECFA
:107CC80032F02A502910D8A41FD0010EB06E370EFA
:107CD800AF6E000E1C6E0A0E1B6E98EC32F07F0E13
:107CE800196E2C0E186EBCEC32F0010E1C6EF40EE0
:107CF8001B6E98EC32F01A0EE5EC31F0010E1C6E9A
:107D0800F40E1B6E98EC32F0330EF66E7F0EF76EA3
:107D18000800F550680AD8A404D0040EB06EE10E2D
:107D2800AF6E330EF66E7F0EF76E0800F5506A0AD6
:107D3800D8A404D0020EB06E700EAF6E330EF66E7D
:107D48007F0EF76E0800F5506C0AD8A404D0010E17
:107D5800B06E370EAF6E010E1C6EF40E1B6E98ECF3
:107D680032F07F0E196E090E186EBCEC32F0010E5F
:107D78001C6EF40E1B6E98EC32F01A0EE5EC31F026
:107D8800010E1C6EF40E1B6E98EC32F029042A10BA
:107D9800D8A411D01F6E000E156E1F50210ED4EC02
:107DA80031F0000E2A6E000E296E000E1C6E0A0EAF
:107DB8001B6E98EC32F0210EBBEC31F00009D8A410
:107DC80027D0330EF66E7F0EF76E0800F550680A5E
:107DD800D8A404D0040EB06EE10EAF6E330EF66E6A
:107DE8007F0EF76E0800F5506A0AD8A404D0020E78
:107DF800B06E700EAF6E330EF66E7F0EF76E080023
:107E0800F5506C0AD8A404D0010EB06E370EAF6ED0
:107E1800210EBBEC31F00009D8B428D0220EBBECFF
:107E280031F00009D8B422D0230EBBEC31F00009A0
:107E3800D8B41CD0000E2A6E000E296E40EC33F028
:107E4800F19E29042A10D8A411D01F6E000E156EB9
:107E58001F50220ED4EC31F0000E2A6E000E296E4F
:107E6800000E1C6E0A0E1B6E98EC32F0220EBBEC54
:107E780031F00009D8A427D0D90EF66E7E0EF76E21
:107E88000800F550720AD8A404D0040EB06EE10EB2
:107E9800AF6ED90EF66E7E0EF76E0800F550620AC8
:107EA800D8A404D0020EB06E700EAF6ED90EF66E66
:107EB8007E0EF76E0800F550660AD8A404D0010EAD
:107EC800B06E370EAF6E12000082A856AA82A4A820
:107ED8007A6272646060586058601A140082A8560A
:107EE8009C829A8A7AA6C2DCAAA684626A1A1400BC
:107EF80082A8569C829A8A909ABEA6C2DCAAA684B8
:107F08000082A8569C829A8AA6C2DCAAA68462002D
:107F180082A856A48AA68AA81A140082A85684821F
:107F2800AA886A0082A8568482AA886A0082A8560B
:107F3800A48AA68AA80082A81A140082A8006874D5
:107F48007470733A2F2F646F63732E676F6F676C4B
:107F5800652E636F6D2F666F726D732F642F3150AE
:107F68005A4F716A6E69744552306D3033497834AE
:107F78007239674442716870375873315972506D5D
:107F88006A4C796D4532565741552F666F726D525E
:107F98006573706F6E73653F69667126656E74727E
:107FA800792E3936323032333038393D0026656E15
:107FB8007472792E313538393238343333333D00E1
:107FC80026656E7472792E31343638323636373348
:107FD800333D0026656E7472792E3136303939306A
:107FE800343935373D00267375626D69743D5375B4
:087FF800626D69742A000000AB
:020000040020DA
:08000000FFFFFFFFFFFFFFFF00
:020000040030CA
:0E00000000051F1FFF8385FF0FC00FE00F409C
:00000001FF
